:020000040800F2
:10000000189F002045010008550D0008E50900086B
:10001000510D0008CF020008771900080000000009
:10002000000000000000000000000000F50E0008C5
:10003000D302000800000000DD0D000809100008D0
:100040005F0100085F0100085F0100085F01000810
:100050005F0100085F0100085F0100085F01000800
:100060005F0100085F0100085F0100085F010008F0
:100070005F0100085F0100085F0100085F010008E0
:100080005F0100085F0100085F0100085F010008D0
:100090005F0100085F0100085F0100085F010008C0
:1000A0005F0100085F0100085F0100085F010008B0
:1000B0005F0100085F0100085F0100085F010008A0
:1000C0005F0100085F0100085F0100085F01000890
:1000D0005F010008091400085F010008F515000819
:1000E0005F0100085F0100085F0100085F01000870
:1000F0005F0100085F0100085F0100085F01000860
:100100005F0100085F0100085F0100085F0100084F
:100110005F0100085F0100085F0100085F0100083F
:100120005F0100085F0100085F0100085F0100082F
:10013000DFF80CD000F09AF8004800475D1F000877
:10014000189F00200648804706480047FEE7FEE764
:10015000FEE7FEE7FEE7FEE7FEE7FEE7FEE7FEE777
:10016000491000083101000840EA01039B0703D051
:1001700009E008C9121F08C0042AFAD203E011F8E6
:10018000013B00F8013B521EF9D27047D2B201E0A8
:1001900000F8012B491EFBD270470022F6E710B58C
:1001A00013460A4604461946FFF7F0FF204610BDE5
:1001B00030B505462A460B4612F8010B13F8014BE1
:1001C00008B1A042F8D01CB1002802D06D1CF1E7A4
:1001D000284630BDCAB2401E10F8011F8A4202D024
:1001E0000029F9D100207047421C10F8011B00299A
:1001F000FBD1801A7047034611F8012B00F8012B40
:10020000002AF9D1184670472DE9F05F0546002015
:1002100092469B4688460646814640241BE0284677
:1002200041464746224600F042F853465A46C01A15
:10023000914110D311461846224600F029F82D1A94
:1002400067EB01084F4622460120002100F020F80C
:1002500017EB00094E41201EA4F10104DFDC4846E3
:1002600031462A464346BDE8F09F0000064C074D44
:1002700006E0E06840F0010394E807009847103476
:10028000AC42F6D3FFF758FFE86C0008086D000891
:10029000202A04DB203A00FA02F100207047914046
:1002A000C2F1200320FA03F3194390407047202A3B
:1002B00004DB203A21FA02F00021704721FA02F310
:1002C000D040C2F12002914008431946704700BF58
:1002D000FEE7704710B54FF40041094800F080FB7D
:1002E0004FF47A7001F0B4FD01E000F005FAC82384
:1002F000002204A104A000F019F80028F5D010BDD8
:10030000000801404F4B00004154000010B5044666
:10031000012C04D11021044800F062FB03E01021FD
:10032000014800F05BFB10BD000801402DE9F041E1
:1003300006460C4615461F462548B0F800046FF3E4
:100340000E002349A1F80004324622A1234801F0FF
:100350008FF91CB915B90120BDE8F081B8B201F0E0
:1003600077FD00201A49B1F80014C1F30E01184AB4
:10037000505411461AA001F001FBB4B1ADB12146B1
:100380001348FFF715FF08B1012000E0002040B935
:1003900029460F48FFF70CFF08B1012000E00020BC
:1003A00008B10120D8E70020D6E744B1214608482B
:1003B000FFF7FEFE08B10120CEE70020CCE729467A
:1003C0000348FFF7F5FE08B10120C5E70020C3E7A9
:1003D0001097002025730D0A00000000004800401F
:1003E0002573000010B586B004460CB1012000E072
:1003F0000020024606A101A801F0D0FA4FF4FA73DA
:10040000002207A101A8FFF791FF06B010BD000070
:1004100041542B4349504D55583D25640000000080
:100420004F4B000070B505460E4624A001F0A6FA19
:10043000002000F025F918B928A001F09FFA70BD3E
:10044000294630A001F09AFA002412E031462846ED
:1004500000F0F6F818B133A001F090FA0BE0611C3F
:1004600036A001F08BFA40F6B83001F0F1FC601CC8
:10047000C4B20A2CEADB00BF4FF4FA6001F0E8FCDA
:1004800033A001F07BFA0120FFF7ACFF18B93BA0C5
:1004900001F074FAD3E747A001F070FA50A251A11D
:1004A000012000F03BF918B950A001F067FAC6E747
:1004B00059A001F063FA00BFC1E700000D0A5B53C9
:1004C00054415D2053657474696E67205354412014
:1004D0006D6F64652E2E2E0D0A0000005B53544193
:1004E0005D204552524F523A204661696C65642046
:1004F000746F2073657420535441206D6F646521BF
:100500000D0A00005B5354415D20436F6E6E6563BE
:1005100074696E6720746F20576946693A202573A5
:100520000D0A00005B5354415D2057694669206302
:100530006F6E6E6563746564210D0A005B535441F0
:100540005D2052657472792025642E2E2E0D0A00CE
:100550005B5354415D20456E61626C696E67206D2E
:10056000756C7469706C6520636F6E6E6563746919
:100570006F6E732E2E2E0D0A000000005B53544147
:100580005D204552524F523A204661696C656420A5
:10059000746F20656E61626C65206D756C74697036
:1005A0006C6520636F6E6E656374696F6E73210D89
:1005B0000A0000005B5354415D20537461727469FA
:1005C0006E672054435020736572766572206F6E9B
:1005D00020706F727420383038302E2E2E0D0A00A5
:1005E0003138300038303830000000005B5354415F
:1005F0005D204552524F523A204661696C65642035
:10060000746F207374617274205443502073657248
:10061000766572210D0A00000D0A5B535441205487
:100620004350205365727665725D2052656164792E
:10063000206F6E20706F727420383038300D0A00D1
:1006400030B59FB004460D462B46224606A101A8B0
:1006500001F0A4F941F65833002208A101A8FFF7E0
:1006600065FE1FB030BD000041542B43574A415036
:100670003D222573222C2225732200004F4B0000BF
:1006800010B5044624B1012C0AD0022C18D10FE079
:1006900040F6C4130BA20EA10EA0FFF747FE10BD3B
:1006A00040F6C41307A20AA10DA0FFF73FFEF6E72C
:1006B00040F6C41303A206A10CA0FFF737FEEEE735
:1006C0000020ECE76E6F206368616E6765000000D4
:1006D0004F4B000041542B43574D4F44453D310093
:1006E00041542B43574D4F44453D320041542B4319
:1006F000574D4F44453D330010B54FF40041064877
:1007000000F06CF94FF4FA7001F0A2FB4FF40041D5
:10071000014800F065F910BD0008014070B5BCB09B
:1007200004460D461646FCB12B46012215A11EA813
:1007300001F034F9324618A1684601F02FF94FF460
:10074000FA73002218A11EA8FFF7F0FD50B14FF474
:10075000FA73002214A16846FFF7E8FD10B10120EA
:100760003CB070BD0020FBE72B46002205A11EA86F
:1007700001F014F94FF4FA7300220BA11EA8FFF741
:10078000D5FDEDE741542B43495053455256455250
:100790003D25642C2573000041542B43495053548C
:1007A0004F3D2573000000004F4B000051B1820007
:1007B000A2F1C042126842F001038200A2F1C042DD
:1007C000136009E08200A2F1C0421268034B1A4094
:1007D0008300A3F1C0431A6070470000FEFF0F00C2
:1007E000D0E901121143C268114302691143426901
:1007F000114382691143C2691143026A1143426A7B
:100800001143826A1143C26A1143026B11430268A9
:100810009200A2F1C0421160816808290BD10168E1
:100820008900A1F1C041096841F0400201688900D6
:10083000A1F1C0410A60416B0968426B526841EA0C
:100840000211426B926841EA0221426B928941EAAD
:100850000241426B128A41EA0251426B127D41EA27
:100860000261426B926911430268521C9200A2F12C
:10087000C0421160C16AB1F5804F1BD1816B09681C
:10088000826B526841EA0211826B926841EA02214E
:10089000826B128A41EA0251826B127D41EA026147
:1008A000826B9269114302689200A2F1C042C2F8C1
:1008B000041107E06FF0704201688900A1F1C041A6
:1008C000C1F8042170472DE9F041024600250026B9
:1008D000002000230024002791F803C00CF00F052E
:1008E00091F803C00CF0100CBCF1000F03D091F88C
:1008F00002C04CEA050591F800C0BCF1000F31D0F0
:10090000146800202BE04FF0010C0CFA00F3B1F852
:1009100000C00CEA03069E4220D183004FF00F0C6A
:100920000CFA03F7BC4305FA03FC4CEA040491F803
:1009300003C0BCF1280F06D14FF0010C0CFA00FCEB
:10094000C2F814C00AE091F803C0BCF1480F05D109
:100950004FF0010C0CFA00FCC2F810C0401C082833
:10096000D1D31460B1F800C0BCF1FF0F34DD54687E
:1009700000202EE000F1080C4FF0010808FA0CF3FB
:10098000B1F800C00CEA03069E4221D183004FF06B
:100990000F0C0CFA03F7BC4305FA03FC4CEA040401
:1009A00091F803C0BCF1280F05D100F1080C08FA3A
:1009B0000CF8C2F8148091F803C0BCF1480F07D1BD
:1009C00000F1080C4FF0010808FA0CF8C2F810808A
:1009D000401C0828CED35460BDE8F08141617047C7
:1009E0000161704700BFFEE770B5064600240C4861
:1009F0000588408845430A484088401E83B208481D
:100A00000088401E82B20021084600F043F800BF73
:100A100003E0304600F06EF9641CAC42F9D370BDBF
:100A20002400002000B502460F4882716AB93620C2
:100A300000F054F94C2000F057F94FF4F0700A49D7
:100A400048804FF4A07008800CE0362000F046F992
:100A50002C2000F049F94FF4A070034948804FF46E
:100A6000F070088000BD00002400002070B504462E
:100A70000D4616462B4622462946204600F00AF827
:100A8000304600F037F970BD01480088704700001B
:100A90000008006C30B504460D462A2000F01EF90F
:100AA000201200F021F9E0B200F01EF9101200F05F
:100AB0001BF9D0B200F018F92B2000F00FF9281222
:100AC00000F012F9E8B200F00FF9181200F00CF97A
:100AD000D8B200F009F92C2000F000F930BD000078
:100AE0002DE9F84F80460F4616461C46BB46204669
:100AF000E31704EB5373DB1021464FEAE47C04EB6D
:100B00005C7C4FEAEC0CA4EBCC0CBCF1000F02D0E7
:100B10004FF0010C01E04FF0000C6344224604EB5F
:100B2000D27C4FEA6C0C03FB0CF3DBB20093A6F112
:100B30002000C6B200255EE00C2C07D106EB460073
:100B40002F4901EB800010F805901BE0102C05D117
:100B50002C4800EB061010F8059013E0182C07D174
:100B600006EBC600284901EB800010F8059009E06B
:100B7000202C05D1254800EBC61010F8059001E0A7
:100B8000BDE8F88F4FF0000A2FE009F0800030B187
:100B90001F48028839464046FFF768FF07E00A9879
:100BA00028B91C48028839464046FFF75FFF4FEAE4
:100BB00049604FEA1069781C87B217484088B842EC
:100BC00000DCDDE7A7EB0B00A0420AD15F4608F18D
:100BD00001001FFA80F810480088404500DCCFE78C
:100BE00006E00AF1010000F0FF0ABAF1080FCCDBC1
:100BF00000BF681CC5B2009885429DDB00BFBFE7FF
:100C0000A82500081C2A00080C300008683D0008D0
:100C10002000002022000020240000202DE9FF4FAA
:100C2000804689469246DDF834B00026002700242D
:100C30001BE0002515E0781C1BF800604FF6FF70E4
:100C400000EA06261BF80700064309EB040291B2EE
:100C500008EB050290B23246FFF708FFBF1C681C84
:100C600085B25545E7DB601C84B203988442E0DB23
:100C7000BDE8FF8F2DE9F84704460D46904699469A
:100C8000DDE9096704F0FF0A08EB04001FFA80F8A9
:100C900009EB05001FFA80F916E0444502DB5446D3
:100CA000A81985B24D4500DB14E0002000903A7889
:100CB000334629462046FFF713FF304606EBD07136
:100CC00004EB61018CB27F1C38787E2802DC387816
:100CD0002028E2DA00BFBDE8F8870000014908805B
:100CE00070470000FE07006C014908807047000053
:100CF0000008006C0112024A1180C1B211807047D5
:100D00000008006C08B50121482000F079F8202087
:100D1000ADF8000010208DF8030003208DF80200CC
:100D200069460948FFF7CFFD20210748FFF758FE25
:100D30002020ADF8000069460448FFF7C4FD2021DB
:100D40000248FFF74DFE08BD000C014000180140AD
:100D500000BFFEE77047000070B5002100230F229E
:100D6000C47804B3154C246804F4E064C4F5E0646A
:100D7000210AC1F10403CA40447804FA03F18478DB
:100D80001440214309010E4C0678A155047804F063
:100D90001F050124AC4005786D11AD0005F1E0257B
:100DA000C5F8004109E0047804F01F050124AC40B7
:100DB000044D0678761145F8264070BD0CED00E034
:100DC00000E400E080E100E002490143024A1160D2
:100DD000704700000000FA050CED00E070470000CD
:100DE00029B1064A52690243044B5A6104E0034A9E
:100DF00052698243014B5A61704700000010024063
:100E000029B1064A92690243044B9A6104E0034AFD
:100E100092698243014B9A617047000000100240C2
:100E200030B500210022002400232D4D6D6805F00F
:100E30000C0121B1042905D0082923D105E0294D51
:100E4000056022E0274D05601FE0254D6D6805F423
:100E50007012234D6D6805F48034022505EB924233
:100E60001CB9214D554305600BE01D4D6D6805F41F
:100E700000351DB11C4D5543056002E0194D554329
:100E8000056002E0174D056000BF00BF144D6D689E
:100E900005F0F0010909154D6B5C0568DD40456002
:100EA0000F4D6D6805F4E061090A104D6B5C4568F3
:100EB000DD4085600A4D6D6805F46051C90A0B4D2F
:100EC0006B5C4568DD40C560054D6D6805F44041CB
:100ED000890B074D6B5CC568B5FBF3F5056130BD4B
:100EE0000010024000127A0000093D000C000020B2
:100EF0001C000020704710B500F002F810BD000083
:100F00000CB50020019000903348006840F4803018
:100F10003149086000BF3048006800F4003000909C
:100F20000198401C0190009818B90198B0F5A06F85
:100F3000F1D12948006800F4003010B10120009080
:100F400001E0002000900098012843D12348006868
:100F500040F01000214908600846006820F00300B6
:100F600008600846006840F0020008601A484068BF
:100F7000194948600846406848600846406840F49F
:100F8000806048600846406820F47C10486008464D
:100F9000406840F4E81048600846006840F08070FF
:100FA000086000BF0C48006800F000700028F9D00D
:100FB0000948406820F00300074948600846406837
:100FC00040F00200486000BF0348406800F00C0099
:100FD0000828F9D10CBD000000100240002002409A
:100FE000042808D14FF0E021096941F004014FF0D5
:100FF000E022116107E04FF0E021096921F00401CE
:101000004FF0E022116170477047000010B50446B0
:101010006FF00400FFF7E4FFE11704EB5171C1F337
:10102000C701074A11701046007800EB4001C1EB80
:10103000C0104FF6FF7101EAC0000249088010BDE0
:101040002C0000202E00002010B51348006840F04E
:1010500001001149086008464068104908400E49DF
:101060004860084600680E4908400B490860084679
:10107000006820F4802008600846406820F4FE00E4
:1010800048604FF41F008860FFF735FF4FF00060A5
:101090000449086010BD0000001002400000FFF885
:1010A000FFFFF6FE08ED00E000B59FB00121080249
:1010B000FFF796FE01212020FFF7A2FE012140202C
:1010C000FFF79EFE01210802FFF79AFE4CF23370F3
:1010D000ADF8780018208DF87B0003208DF87A0099
:1010E0001EA92F48FFF7EFFB4FF68070ADF8780090
:1010F0001EA92C48FFF7E7FB41F20100ADF878008C
:101100001EA92948FFF7DFFB01210820FFF778FE21
:101110000120ADF8780010208DF87B0003208DF8B9
:101120007A001EA92148FFF7CEFB0F201790002060
:1011300018903C20199000201A901B901C901D9034
:101140000920109000201190082012900020139088
:1011500014901590169006200190002002900390A4
:1011600010200490002005900790089009904FF4FB
:1011700080500A9000200B904FF480400C9000208B
:1011800006900D9017A80E9010A80F9001A8FFF7D9
:1011900027FB01210620FFF709FB1FB000BD00005F
:1011A000001401400018014000200140000C0140E3
:1011B00010B5FFF779FF322000F04AFED020FFF78C
:1011C0008DFDFFF761FC8A498880FFF75DFC884947
:1011D00088800846818887A000F0D0FB1120FFF7A7
:1011E0007DFD4FF4FA7401E0601E84B2002CFBDC3C
:1011F000B920FFF773FDFF20FFF776FD8320FFF78F
:1012000073FD5720FFF770FD4FF4FA7401E0601E84
:1012100084B2002CFBDCB120FFF760FD0020FFF75B
:1012200063FD1420FFF760FD1C20FFF75DFD1C200F
:10123000FFF75AFDC320FFF757FD4420FFF754FD89
:101240007020FFF751FD4FF4FA7401E0601E84B284
:10125000002CFBDCB420FFF741FD2220FFF744FD0A
:101260004020FFF741FD0020FFF73EFD2A20FFF759
:101270003BFD2A20FFF738FD2020FFF735FD9120A8
:10128000FFF732FD4FF4FA7401E0601E84B2002CC7
:10129000FBDC3620FFF722FD4C20FFF725FDC020A8
:1012A000FFF71CFD5020FFF71FFD5020FFF71CFD2E
:1012B0000120FFF719FD3C20FFF716FDC820FFF7BE
:1012C00013FD0820FFF710FD0020FFF70DFD08209B
:1012D000FFF70AFD0420FFF707FD4FF4FA7401E061
:1012E000601E84B2002CFBDC4FF4FA7401E0601E37
:1012F00084B2002CFBDCE020FFF7F0FC0B20FFF7B2
:10130000F3FC1120FFF7F0FC1E20FFF7EDFC30206E
:10131000FFF7EAFC3A20FFF7E7FC4320FFF7E4FC85
:101320004E20FFF7E1FC5620FFF7DEFC4520FFF7DB
:10133000DBFC3F20FFF7D8FC3920FFF7D5FC32203B
:10134000FFF7D2FC2F20FFF7CFFC2A20FFF7CCFCC1
:101350002920FFF7C9FC2120FFF7C6FC0B20FFF76F
:10136000C3FC1120FFF7C0FC1E20FFF7BDFC30209E
:10137000FFF7BAFC3A20FFF7B7FC4320FFF7B4FCB5
:101380004E20FFF7B1FC5620FFF7AEFC4520FFF7DB
:10139000ABFC3F20FFF7A8FC3920FFF7A5FC32206B
:1013A000FFF7A2FC2F20FFF79FFC2A20FFF79CFCF1
:1013B0002920FFF799FC2120FFF796FC0020FFF77A
:1013C00093FC0120FFF790FC3A20FFF787FC0520F3
:1013D000FFF78AFC2920FFF781FC0020FFF722FBA2
:1013E0000120084908604FF6FF70FFF7FDFA10BDB5
:1013F00024000020204C43442049443A25780D0A1B
:1014000000000000808121427FB547A30FCB8DE80B
:101410000F0040F22551484800F0E9F9002874D047
:10142000454800F09FFAC5B24448008800F40040E7
:10143000002872D14148008800F48040002849D03B
:101440000A2D03D000203D49088066E03B48008813
:1014500040F400403949088008460088C0F30D0672
:1014600000240DE000BF8021334800F0B3F90028CC
:10147000F9D01DF80410304800F079FA601C84B2ED
:101480006846FEF7B1FEA042ECD800BF80212A4892
:1014900000F0A0F90028F9D02021274800F067FAD1
:1014A00000240DE000BF8021234800F093F90028BC
:1014B000F9D02348015D204800F059FA601C84B23D
:1014C000B442EFDB00201D490880C8211C48FEF70C
:1014D00064FE22E00D2D06D11848008840F48040BB
:1014E0001649088019E015480088C0F30D00C82887
:1014F0000CDA12480088C0F30D0011490D540F4852
:101500000088401C0D49088007E00BE000200B49D3
:101510000880C8210A48FEF740FE40F225510648DF
:1015200000F03DF97FBD0000726573706F6E7365EA
:1015300020746578743A00000038014030000020C3
:101540004896002010B586B0044601210420FFF71C
:1015500057FC01218803FFF753FC4FF40070ADF8EE
:10156000140003208DF8160018208DF8170005A927
:101570001E48FFF7A8F94FF48060ADF8140004206E
:101580008DF8170005A91948FFF79DF9019400206F
:10159000ADF80800ADF80A00ADF80C00ADF8100089
:1015A0000C20ADF80E0001A9114800F06FF90121DF
:1015B0000F4800F003F940210D4800F0E7F8012240
:1015C00040F225510A4800F03CF925208DF8000032
:1015D00003208DF801008DF8020001208DF8030032
:1015E0006846FFF7B9FB06B010BD000000080140D7
:1015F0000038014010B540F225511B4800F0F7F8C3
:10160000D8B1194800F0AEF9C4B21848B0F80004D7
:10161000C0F30E0040F2FF3188420EDA1349B1F8F0
:101620000014C1F30E00411C104AB2F8002461F30B
:101630000E020E49A1F800240C5440F224410A483D
:1016400000F0D5F801280DD10848B0F8000420F4C6
:10165000004000F500400549A1F80004024800F0F0
:1016600081F9C4B210BD000000480040109700206E
:101670000FB470B586B006460CA801907DE00B98BB
:1016800000785C2826D10B98401C0B90007822280B
:1016900013D06E2809D0722817D10D21304600F0E2
:1016A00066F90B98401C0B9013E00A21304600F0BD
:1016B0005EF90B98401C0B900BE02221304600F0A5
:1016C00056F90B98401C0B9003E00B98401C0B90B4
:1016D00000BF4BE00B980078252840D10B98401CA8
:1016E0000B900078642818D0732833D1019810C863
:1016F00001900BE02178304600F039F900BF8021DD
:10170000304600F067F80028F9D0641C20780028E3
:10171000F0D10B98401C0B9020E0019820C801905C
:101720000A2202A9284600F0E7FB02AC0BE0217870
:10173000304600F01CF900BF8021304600F04AF826
:101740000028F9D0641C20780028F0D10B98401CA8
:101750000B9003E00B98401C0B9000BF06E00B9829
:1017600010F8011B0B90304600F001F900BF8021FA
:10177000304600F02FF80028F9D00B9800780028A8
:101780007FF47DAF06B070BC5DF814FB01F400720D
:10179000B2F5007F00D100BFCA430280704710B588
:1017A0000022002340F66A14A14200D100BF0A12B1
:1017B00001249440A3B2DC43048010BD21B182898E
:1017C00042F40052828104E082894DF6FF731A4090
:1017D0008281704702460020B1F5007F00D100BF32
:1017E00013880B400BB1012000E00020704770B55A
:1017F0000246002400230025002040F66A16B1426C
:1018000000D100BFC1F3421501F01F03012606FA03
:1018100003F3012D02D19689334006E0022D02D157
:10182000168A334001E0968A33400C12012606FAEC
:1018300004F41688344013B10CB1012000E00020FC
:1018400070BDF0B50346002400260025002040F6B8
:101850006A17B94200D100BF1846C1F3421401F023
:101860001F06012707FA06F5012C01D10C3004E010
:10187000022C01D1103000E014301AB107682F4358
:10188000076002E00768AF430760F0BD2DE9F0474D
:1018900086B005460E460024A24600BFA14600279A
:1018A000B08900B100BF2F462C8A4CF6FF7004406F
:1018B000F08804432C82AC894EF6F3100440B088C3
:1018C00031890843718908430443AC81AC8A4FF6DF
:1018D000FF400440B0890443AC8201A8FFF7A0FA9E
:1018E0001F48874202D1DDF810A001E0DDF80CA00E
:1018F000A88900F4004040B10AEBCA0000EB0A10CE
:1019000031684900B0FBF1F807E00AEBCA0000EBD0
:101910000A1031688900B0FBF1F86420B8FBF0F0E0
:1019200004012009642101FB1089A88900F400400A
:1019300040B1322000EBC900B0FBF1F000F007002D
:10194000044308E0322000EB09106421B0FBF1F001
:1019500000F00F0004432C8106B0BDE8F0870000C2
:101960000038014001468888C0F308007047C1F381
:1019700008028280704700BFFEE700000FB4054BED
:1019800010B503A9044A029800F02CF810BC5DF8C9
:1019900014FB0000D51E0008340000200FB4084BD3
:1019A00010B504A902AA039800F01CF8044602A985
:1019B000002000F048FA204610BC5DF814FB00003F
:1019C000471E000802E008C8121F08C1002AFAD109
:1019D00070477047002001E001C1121F002AFBD1AF
:1019E000704700002DE9FF4F8DB00F4605460026D9
:1019F00006E025280BD0DDE90F1290476D1C761C00
:101A000028780028F5D111B03046BDE8F08F0024C9
:101A1000A246A1460122EC4900E0044315F8013F2B
:101A2000203B02FA03F00842F7D128782A2810D088
:101A30006FF02F022878A0F13001092914D80AEBA1
:101A40008A0102EB410144F0020400EB010A6D1C23
:101A5000F0E701CF5FEA000A03D544F40054CAF16D
:101A6000000A44F002046D1C28782E2817D115F8BE
:101A7000010F44F004042A280ED06FF02F022878BA
:101A8000A0F1300109290AD809EB890102EB4101D3
:101A900000EB01096D1CF2E757F8049B6D1C2878D8
:101AA0006C280FD006DC4C2817D068280DD06A2887
:101AB00014D104E0742810D07A280FD10DE044F43A
:101AC00000140AE044F4801401E044F440146978FE
:101AD000814202D104F580146D1C6D1C2A786E2A97
:101AE0001FD00CDC632A31D004DC002A8BD0582AAA
:101AF00011D1A3E0642A68D0692A0CD165E0732A69
:101B00002ED004DC6F2A73D0702A04D19BE0752A92
:101B10006FD0782A6ED01046DDE90F129047761C00
:101B200050E1C4F30250022806D0032809D004284B
:101B300001CF09D0066045E101CFF117C0E900618E
:101B400040E101CF06803DE106703BE117F8040B50
:101B50008DF8000000208DF80100EB46012003E025
:101B600057F804BB4FF0FF3061074FF0000102D47B
:101B70000DE008F10101884649450FDA8045F8DBA0
:101B80001BF808100029F4D108E008F1010188468B
:101B90008142FADB1BF808100029F6D1DDE90F239A
:101BA000AAEB08008146214600F036F9304400EBEC
:101BB000080604E0DDE90F121BF8010B9047B8F1AD
:101BC0000108F7D221464846F7E00A21C4F3025340
:101BD0004FF0000B0891022B04D001CFC117032B4B
:101BE00009D00AE0FF1D27F00707F7E8020108E027
:101BF00032E01FE020E000B2C117042B01D140B257
:101C0000C117031E71F1000307DA4FF0000CD0EB8F
:101C10000C006CEB01012D2302E0230504D52B23DE
:101C20008DF82430012303E0E30701D02023F7E7F8
:101C3000984658E00A2110E010210EE010204FF0E5
:101C4000000B08900CE010214FF0000B44F004044E
:101C50004FF00809089103E008214FF0000B0891AC
:101C6000C4F30253022B04D001CF0021032B06D072
:101C700006E0FF1D27F00707F7E8020103E080B246
:101C8000042B00D1C0B24FF0000823072BD5702AD7
:101C900007D0DDF820C08CF0100C5CEA0B0C05D0EE
:101CA0000EE040238DF82430012308E050EA0103C0
:101CB00006D030238DF824308DF825200223984655
:101CC000DDF820C08CF0080C5CEA0B0C0BD150EA5C
:101CD000010301D1630706D530238DF824304FF07E
:101CE0000108A9F10109582A04D038A20B9208AAC8
:101CF0000A920BE03AA2F9E75B46089AFEF784FAEB
:101D00000B9B9B5C0A9A521E0A92137050EA0102C6
:101D1000F2D10A98ADEB000000F1200B600702D56C
:101D200024F4803401E04FF00109D94502DDA9EB2C
:101D30000B0000E0002000EB0B0141440890AAEBEF
:101D4000010AE00306D4DDE90F232146504600F0E6
:101D500063F806444FF0000908E009A911F80900EA
:101D6000DDE90F12904709F10109761CC145F4DB4A
:101D7000E0030CD5DDE90F232146504600F04CF876
:101D8000064404E0DDE90F1230209047761C0899E4
:101D9000481E08900029F5DC08E00A980A990078A6
:101DA000491C0A91DDE90F129047761CBBF1000136
:101DB000ABF1010BF1DC21465046DDE90F2300F0C9
:101DC00019F806446D1C1BE6092801003031323336
:101DD0003435363738396162636465660000000067
:101DE0003031323334353637383941424344454651
:101DF000000000002DE9F041044600251E4617466C
:101E0000880404D405E039462020B0476D1C641EC8
:101E1000F9D52846BDE8F0812DE9F04104460025BA
:101E20001E469046C80301D5302700E020278804CD
:101E300004D505E041463846B0476D1C641EF9D50F
:101E40002846BDE8F0810A68531C0B60107070478B
:101E500070B504464FF4077094FBF0F0C6B24FF42F
:101E6000077094FBF0F100FB114085B205E04FF4E0
:101E7000077000F009F8701EC6B2002EF7D115B138
:101E8000284600F001F870BD0146114A12884A4305
:101E90004FF0E0235A6100229A611A46126942F01B
:101EA00001021A6100BF4FF0E022106900F0010248
:101EB0001AB100F48032002AF5D04FF0E022126906
:101EC00022F001024FF0E0231A6100229A6170476C
:101ED0002E00002070B504460D46E1B20548FFF71C
:101EE00046FD00BF80210348FFF774FC0028F9D0AD
:101EF000204670BD00380140F0B503460D46164639
:101F0000002729460A2E03D0002008702846F0BD7D
:101F100033B9302001F8010B002008702846F6E79D
:101F2000002B03DA2D2001F8010B5B4242F2107204
:101F30000DE093FBF2F404B937B104F1300001F87D
:101F4000010B04FB123301270A2092FBF0F2002A56
:101F5000EFDC002008702846D9E700009AB048203E
:101F6000FFF754F84FF4A060FEF72EFF4FF4E13076
:101F7000FFF7E8FAFEF7C6FEFFF71AF90020CB4993
:101F800008804FF6FF70CA490880CAA0FFF7F6FC28
:101F9000D4A0FFF7F3FCDBA0FFF7F0FC4FF6FF70D7
:101FA000FEF722FDE2A01021CDE90010E5484388AC
:101FB00002880A210846FEF75DFEE3A01021CDE964
:101FC0000010E0484388028828210A20FEF752FECC
:101FD000E1A00C21CDE90010DA484388028878217D
:101FE0000A20FEF747FEE0A0FFF7C8FC0120FEF73D
:101FF0008DF9FEF781FB4FF4FA60FFF729FFE1A0AE
:10200000FFF7BCFCFEF766F9E3A0FFF7B7FCEBA116
:10201000EDA0FEF707FAEFA1F048FEF7ECF8F0A00C
:10202000FFF7ACFC4FF4FA630022F5A1F5A0FEF730
:102030007DF9F749F7A0FFF7A1FC40F6B83300227D
:10204000EFA1F9A0FEF772F9F149FAA0FFF796FCAB
:10205000FDA1EF48FEF7ACF8044624B9FEA1EC4818
:10206000FEF7A6F80446BCB100E0641C20782228E4
:1020700002D020780028F8D1207822280CD1641CC6
:1020800022212046FEF7A6F806462EB10020307029
:102090002146D248FEF7AFF8D04800783F281ED13D
:1020A000EFA1DB48FEF784F8044624B9EEA1D84836
:1020B000FEF77EF8044624B9EDA1D548FEF778F87E
:1020C000044664B1641C22212046FEF783F80646CC
:1020D0002EB1002030702146C048FEF78CF875A064
:1020E000FFF74CFCE4A0FFF749FCB7A1E7A0FFF71E
:1020F00045FCBA49E9A0FFF741FCECA0FFF73EFC24
:102100007822A021EDA0FFF739FC7EA0FFF736FC76
:10211000ADA2F0A112A8FFF741FCB04AF0A10AA8B5
:10212000FFF73CFCF1A102A8FFF738FC4FF6FF7067
:10213000FEF75AFC12A81021CDE90010814843880F
:1021400002880A210846FEF795FD0AA81021CDE96C
:1021500000107C484388028828210A20FEF78AFD67
:1021600002A80C21CDE9001076484388028864213A
:102170000A20FEF77FFDE2A0FFF700FC07E2A4487B
:10218000B0F80004C00B002870D00020A049B1F8BE
:102190000014C1F30E019E4A5054E5A11046FEF70B
:1021A00007F80546002D52D06D1D00E06D1C287803
:1021B000302802DB28783928F8DD28782C2800D14F
:1021C0006D1C002707E02878303807EB870100EB0B
:1021D000410087B26D1C2878302802DB2878392826
:1021E000F1DD3A212846FDF7F5FF8046B8F1000FF2
:1021F0002DD008F101088648B0F80004C0F30E00A5
:1022000083490844A0EB08001FFA80F94F4500DD20
:102210004F46C94800683844B0F5164F0CD8C74936
:10222000C54A126888183A464146FDF79DFFC248E4
:1022300000683844C0490860BF480068B0F5164FD0
:1022400005D30120BE4908700020BB4908607048D2
:10225000B0F800046FF30E006D49A1F800040846C1
:10226000B0F8000420F40040A1F80004B44800785D
:10227000D0B10020B2490870B2480068401CB14992
:10228000086030490988A1F1A00000EBD071C1F3CA
:102290004F0A2C494988A1F1780000EBD071C1F3B5
:1022A0004F0BA64878234FE165E100002000002095
:1022B000220000200D0A3D3D3D3D3D3D3D3D3D3D63
:1022C0003D3D3D3D3D3D3D3D3D3D3D3D3D3D3D3D3E
:1022D0003D3D3D3D3D3D3D3D3D3D3D3D3D3D0D0A91
:1022E00000000000202020576946692043616D6589
:1022F0007261205446544C43442050726F6A6563A7
:10230000740D0A003D3D3D3D3D3D3D3D3D3D3D3D66
:102310003D3D3D3D3D3D3D3D3D3D3D3D3D3D3D3DED
:102320003D3D3D3D3D3D3D3D3D3D3D3D0D0A0000BA
:10233000576946692043616D657261205446544C6B
:102340004344000024000020496E69742045535026
:10235000383236362E2E2E007777772E70726563E0
:1023600068696E2E636E00005B312F335D20456E11
:1023700061626C696E6720455350383236362E2EB6
:102380002E0D0A005B322F335D20415420546573BB
:10239000742E2E2E0D0A00005B332F335D20535414
:1023A00041204D6F6465202B2054435020536572AB
:1023B0007665722E2E2E0D0A0000000077786A795D
:1023C000776D6D737A6700006950686F6E652028BD
:1023D000382900003F2E3F2E3F2E3F003896002028
:1023E0005B576946695D20436865636B696E67206A
:1023F000636F6E6E656374696F6E2E2E2E0D0A000C
:102400004F4B000041542B43574A41503F000000BE
:10241000109700205B576946695D2043574A415039
:102420003A2025730D0A000041542B43494653526C
:10243000000000005B49505D2043494653523A205A
:1024400025730D0A000000002B43494653523A53AE
:10245000544149502C22000053544149502C220031
:10246000223139322E0000002231302E00000000CF
:10247000223137322E0000002020535441204D6F6E
:102480006465205265616479210D0A002020576936
:1024900046693A202025730D0A000000202049508B
:1024A0003A2020202025730D0A0000002020506FC4
:1024B00072743A2020383038300D0A002020496DDF
:1024C0006167653A20256478256420524742353695
:1024D000350D0A00576946693A202573000000004F
:1024E00049503A2025733A383038300057616974C2
:1024F000696E6720666F722050432E2E2E000000FA
:102500000D0A5B52454144595D2057616974696EFB
:102510006720666F7220636C69656E7420636F6EEE
:102520006E656374696F6E2E2E2E0D0A000000001A
:102530002B4950442C0000000000002038000020EF
:102540000400002008000020A022594600905046B8
:10255000FEF764FB0E480FA1026802A8FFF71EFAFF
:1025600002A80C21CDE900100D484388028864219F
:102570000A20FEF77FFB0B48006808B9012000E045
:102580000020084908600A20FFF762FC00BFF6E55A
:10259000080000204672616D652023256C750000DF
:1025A000240000209481214200000000000000006F
:1025B00000000000000000003F400000000000009C
:1025C00000003000400030004000000009000BC057
:1025D0003D000BC03D00090018C024407FE02240B0
:1025E00031800000180024C01B000D8032400180A3
:1025F00003801C4027401C80074000401000600002
:1026000000000000000000000000000000001F802B
:10261000204040200000402020401F80000000009B
:10262000090006001F8006000900000004000400E5
:102630003F80040004000000001000600000000063
:102640000000000004000400040004000400000076
:10265000000000400000000000000000002001C059
:1026600006003800400000001F802040204020402D
:102670001F800000000010403FC00040000000002C
:1026800018C0214022402440184000001080204003
:10269000244024401B80000002000D0011003FC0B8
:1026A000014000003C80244024402440238000005E
:1026B0001F8024402440344003800000300020006C
:1026C00027C03800200000001B8024402440244004
:1026D0001B8000001C0022C0224022401F800000FE
:1026E00000000000084000000000000000000000A2
:1026F0000460000000000000000004000A00110057
:10270000208040400900090009000900090000007C
:1027100000004040208011000A0004001800200042
:1027200023402400180000001F802040274029403B
:102730001F400000004007C039000F0001C00040EA
:1027400020403FC0244024401B8000001F802040C8
:10275000204020403080000020403FC020402040EA
:102760001F80000020403FC024402E4030C00000A9
:1027700020403FC024402E00300000000F00108099
:10278000204022403380020020403FC0040004006B
:102790003FC02040204020403FC02040204000005B
:1027A0000060202020203FC02000200020403FC0AB
:1027B00024400B0030C0204020403FC0204000405B
:1027C000004000C03FC03C0003C03C003FC00000D0
:1027D00020403FC00C4023003FC020001F8020400D
:1027E000204020401F80000020403FC024402400A3
:1027F000180000001F802140214020E01FA00000A1
:1028000020403FC02440260019C0004018C024408A
:102810002440224031800000300020403FC0204052
:102820003000000020003F80004000403F8020003A
:1028300020003E0001C0070038002000380007C01B
:102840003C0007C038000000204039C0060039C0F5
:10285000204000002000384007C038402000000021
:10286000304021C02640384020C000000000000059
:102870007FE0402040200000000070000C0003803A
:10288000004000000000402040207FE000000000E9
:102890000000200040002000000000000010001098
:1028A00000100010001000100000000040000000A8
:1028B00000000000000002800540054003C0004009
:1028C00020003FC00440044003800000000003805B
:1028D00004400440064000000000038004402440FF
:1028E0003FC0004000000380054005400340000059
:1028F000000004401FC0244024402000000002E0EB
:10290000055005500650042020403FC004400400FC
:1029100003C000400000044027C000400000000049
:1029200000100010041027E00000000020403FC00D
:102930000140070004C00440204020403FC0004048
:102940000040000007C0040007C0040003C00000EE
:10295000044007C00440040003C00040000003809E
:102960000440044003800000041007F004500440B9
:1029700003800000000003800440045007F00010B2
:10298000044007C0024004000400000000000640AC
:102990000540054004C00000000004001F80044002
:1029A00000400000040007800040044007C00040D1
:1029B0000400070004C0018006000400060001C0F6
:1029C000070001C006000000044006C0010006C068
:1029D000044000000410071004E001800600040019
:1029E0000000044005C00640044000000000000054
:1029F00004007BE040200000000000000000FFF029
:102A000000000000000040207BE004000000000007
:102A10004000800040002000200040000000000036
:102A200000000000000000000000000000000000A6
:102A300000001FCC000C0000000000000000080097
:102A4000300060000800300060000000022003FC3D
:102A50001E20022003FC1E200220000000000E1891
:102A600011043FFF10840C78000000000F00108458
:102A70000F3800C0077818840078000000780F84B1
:102A800010C411240E9800E40084000808006800B7
:102A900070000000000000000000000000000000C6
:102AA000000007E018182004400200000000400267
:102AB0002004181807E00000000000000240024057
:102AC00001800FF001800240024000000080008081
:102AD00000800FF800800080008000000001000DE1
:102AE000000E000000000000000000000000008058
:102AF0000080008000800080008000800000000CCA
:102B0000000C0000000000000000000000000006B3
:102B1000001800600180060018002000000007F087
:102B2000080810041004080807F00000000008045A
:102B300008041FFC000400040000000000000E0C4C
:102B400010141024104411840E0C000000000C1806
:102B500010041104110412880C700000000000E041
:102B60000320042408241FFC0024000000001F98F8
:102B7000108411041104108810700000000007F088
:102B800008881104110418880070000000001C005F
:102B9000100010FC13001C001000000000000E3894
:102BA00011441084108411440E3800000000070006
:102BB000088C10441044088807F000000000000052
:102BC0000000030C030C00000000000000000000E7
:102BD000000101060000000000000000000000806D
:102BE0000140022004100808100400000220022006
:102BF0000220022002200220022000000000100417
:102C000008080410022001400080000000000E00AF
:102C10001200100C106C10800F00000003E00C1864
:102C200013E4142417C4082807D000000004003C53
:102C300003C41C40074000E4001C000410041FFCF7
:102C40001104110411040E880070000003E00C1838
:102C500010041004100410081C10000010041FFCC5
:102C6000100410041004080807F0000010041FFCF2
:102C70001104110417C410040818000010041FFCEC
:102C80001104110017C010000800000003E00C1828
:102C90001004100410441C780040000010041FFCB5
:102CA00010840080008010841FFC100400001004B9
:102CB00010041FFC100410040000000000030001B9
:102CC000100110011FFE10001000000010041FFC76
:102CD000110403801464181C1004000010041FFC6D
:102CE0001004000400040004000C000010041FFC89
:102CF0001F0000FC1F001FFC1004000010041FFC3C
:102D00000C04030000E010181FFC100007F0080876
:102D1000100410041004080807F0000010041FFC41
:102D200010841080108010800F00000007F0081839
:102D300010241024101C080A07F2000010041FFCC5
:102D40001104110011C011300E0C000400000E1C03
:102D500011041084108410441C3800001800100066
:102D600010041FFC100410001800000010001FF8D1
:102D700010040004000410041FF8100010001E00CE
:102D800011E0001C007013801C0010001FC0103CDC
:102D900000E01F0000E0103C1FC000001004180CF1
:102DA000163401C001C01634180C100410001C00A9
:102DB000130400FC13041C00100000000804101C85
:102DC0001064108413041C0410180000000000009C
:102DD00000007FFE40024002400200000000300080
:102DE0000C0003800060001C000300000000400293
:102DF000400240027FFE00000000000000000000D2
:102E000020004000400040002000000000010001C0
:102E1000000100010001000100010001000040006C
:102E200040002000000000000000000000000098AA
:102E3000012401440144014400FC000410001FFC73
:102E40000088010401040088007000000000007088
:102E500000880104010401040088000000000070E3
:102E600000880104010411081FFC0004000000F8A0
:102E7000014401440144014400C800000000010471
:102E800001040FFC1104110411001800000000D609
:102E900001290129012901C90106000010041FFCB4
:102EA000008401000100010400FC00040000010492
:102EB000190419FC000400040000000000000003D5
:102EC00000010101190119FE0000000010041FFC9F
:102ED0000024004001B4010C0104000000001004B3
:102EE00010041FFC0004000400000000010401FCA9
:102EF0000104010001FC0104010000FC010401FCCB
:102F0000008401000100010400FC0004000000F83E
:102F1000010401040104010400F80000010101FFA3
:102F200000850104010400880070000000000070AA
:102F3000008801040104010501FF000101040104EE
:102F400001FC00840104010001800000000000CCAD
:102F50000124012401240124019800000000010043
:102F6000010007F80104010400000000010001F85D
:102F7000000400040004010801FC000401000180B9
:102F80000170000C001001600180010001F0010CD3
:102F9000003001C00030010C01F00100000001040C
:102FA000018C00740170018C010400000101018199
:102FB0000171000E00180160018001000000018411
:102FC000010C013401440184010C000000000000E8
:102FD0000000000001003EFC400240020000000032
:102FE00000000000FFFF00000000000000004002A1
:102FF00040023EFC010000000000000000006000F4
:103000008000800040004000200020000000000000
:1030100000000000000000000000000000000000B0
:1030200000000000000000000000000000000000A0
:103030000000000000000000000000000000000F81
:1030400080380FFE380F80380000000000000000BC
:103050000000000000000000000001000006000069
:103060000C00003800003100000600000C000038A1
:1030700000003000000000000000000061800067D8
:10308000F807F98000618000618000618000618044
:103090000067F807F9800061800000000000000070
:1030A000000001C0E003E0F00630080418081FFF2C
:1030B000FE040E080787F00381E000000000000016
:1030C00001F000060C00040408060C7001F9C000B1
:1030D0000E00003BE000EC18070808040C18000381
:1030E000E00000000001E00007F003F818041C08ED
:1030F00004170807E1D003C0E00023B0003C08003B
:103100002008000010000000000000010000310055
:10311000003200001C000000000000000000000061
:10312000000000000000000000000000000000009F
:103130000000000000000000000000007F0001FF10
:10314000C00780F00C0018100004200002000000EE
:103150000000002000021000040C00180780F0019D
:10316000FFC0007F00000000000000000000000021
:103170000000000000000000420000660000660041
:10318000003C0000180003FFC0001800003C0000D5
:103190006600006600004200000000000800000811
:1031A0000000080000080000080001FFC00008003F
:1031B00000080000080000080000080000000000EF
:1031C000000100003100003200001C00000000007F
:1031D00000000000000000000000000000000000EF
:1031E00000000000080000080000080000080000BF
:1031F000080000080000080000080000080000089F
:10320000000000000000000000000000380000384E
:103210000000380000000000000000000000000076
:103220000000000000000000000000000006000098
:103230001C000070000180000E0000380000C0007B
:103240000700001C0000300000000000000000002B
:103250007F8001FFE003807006001804000804006E
:103260000806001803807001FFE0007F8000000066
:103270000000000000000100080100080100080330
:10328000FFF807FFF8000008000008000008000031
:103290000000000000000001C03802C0580400987F
:1032A000040118040218040418061C1803F8180175
:1032B000E0F800000000000000000001C0E003C0D2
:1032C000F004000804080804080806180803F418A5
:1032D00001E7F00001E00000000000000000000035
:1032E0000300000D000011000061000081080301CF
:1032F0000807FFF80FFFF8000108000108000000B0
:103300000000000000E007FCD006080806100806D0
:103310001008061008061838060FF00607C000004F
:1033200000000000000000003F8001FFE003843047
:1033300002081804100804100804100807181003E5
:103340000FF00007C000000000000000000003C0F4
:10335000000700000600000600F80607F80618003F
:1033600006E0000700000600000000000000000169
:10337000E1E003F7F0063410041808041808040C00
:1033800008040C0806161803F3F001C1E000000061
:1033900000000000F80003FC3003063804020804B3
:1033A00002080402080404100308F001FFC0007FB3
:1033B000000000000000000000000000000000000D
:1033C0000000000070380070380070380000000005
:1033D00000000000000000000000000000000000ED
:1033E0000000000000000000301A00301C00000047
:1033F00000000000000000000000000000000000CD
:1034000000000008000014000022000041000080BD
:1034100080010040020020040010080008000000A5
:103420000000000021000021000021000021000018
:1034300021000021000021000021000021000021C6
:103440000000000000000000000008000804001058
:1034500002002001004000808000410000220000A6
:10346000140000080000000000000003C00004C0B9
:1034700000040000080038080F3808083808100059
:103480000C300007E00003C0000000000000000056
:103490003F8000FFE0038070020F1006708804C0B8
:1034A00088048308047F8802C09003012000FE4046
:1034B0000000080000180001F8003E0801C20007E3
:1034C000020007E20000FE00001FC80001F8000033
:1034D0003800000804000807FFF807FFF804080890
:1034E00004080804080804080806180803F418016A
:1034F000E7F00001E0000000000000003F8001FF55
:10350000E0038070020018040008040008040008AA
:103510000400100600200780C00000000400080717
:10352000FFF807FFF804000804000804000804007E
:103530001802001003807001FFE0007F800000008F
:1035400004000807FFF807FFF80408080408080447
:103550000808040808043E080400080600180100D2
:103560006000000004000807FFF807FFF8040808DF
:10357000040800040800040800043E0006000006D9
:103580000000018000000000000000003F8001FFFB
:10359000E003807006001804000804020804020812
:1035A0000203F00783F00002000002000400080795
:1035B000FFF807FFF80408080008000008000008EA
:1035C0000000080004080807FFF807FFF8040008D7
:1035D00000000000000004000804000804000807C0
:1035E000FFF807FFF80400080400080400080000C2
:1035F00000000000000000000006000007000001BD
:1036000004000104000104000307FFFE07FFFC049F
:10361000000004000004000004000807FFF807FF92
:10362000F8040C08001800003E0004C7800503C819
:103630000600F80400380400180000080400080719
:10364000FFF807FFF8040008000008000008000069
:1036500008000008000008000018000060000000DA
:1036600004000807FFF807800807FC00007FC0007F
:1036700003F80007C000780007800807FFF807FF7D
:10368000F804000804000807FFF807000803C0005A
:1036900000E000003800001E000007000001C00428
:1036A00000F007FFF8040000000000007F8001FF29
:1036B000E0038070060018040008040008060018E3
:1036C00003003001FFE0007F8000000004000807D5
:1036D000FFF807FFF80404080404000404000404CD
:1036E00000040400060C0003F80001F000000000D4
:1036F000000000007F8001FFE00380700600880466
:1037000000880400C806003C03003E01FFE6007F7D
:103710008400000004000807FFF807FFF804080809
:10372000040800040C00040F00040BC00610F00392
:10373000F03801E00800000800000001E0F803F0A4
:1037400030063010041808041808040C08040C088B
:103750000206180207F00781E00000000180000661
:10376000000004000004000004000807FFF807FF41
:10377000F8040008040000040000060000018000B6
:1037800004000007FFE007FFF00400180000080035
:10379000000800000800000800000804001007FFEF
:1037A000E004000004000006000007E00007FE003F
:1037B000041FE00001F80000380001E0043E0007AB
:1037C000C00006000004000004000007E00007FF3E
:1037D000C0041FF80007C007F80007FF80043FF887
:1037E0000007C004F8000700000400000000000407
:1037F000000806001807C07805F1C8003E00001F49
:10380000800463E80780F806001804000800000040
:1038100004000006000007800007E008047C0800A0
:103820001FF80007F800180804E008070000060069
:10383000000400000000000100080600380400F841
:103840000403E8040F08047C0805F00807C0080713
:1038500000180400600000000000000000000000EC
:10386000000000000000003FFFFE200002200002D8
:1038700020000220000220000200000000000000E2
:10388000000008000007000000C00000380000062B
:10389000000001C000003000000E00000100000028
:1038A0000000000000002000022000022000022092
:1038B00000022000023FFFFE0000000000000000A8
:1038C00000000000000000000000000000080000F0
:1038D0001000003000002000003000001000000840
:1038E00000000000000000000000010000010000D6
:1038F00001000001000001000001000001000001C2
:1039000000000100000100000100000100000000B3
:103910000000000000200000200000100000100047
:103920000000000000000000000000000000000097
:103930000000000000F00019F8001B180022080029
:103940002608002408002410003FF8001FF800009B
:103950000800001800000004000007FFF80FFFF047
:103960000018180010080020080020080030180077
:103970001FF0000FC00000000000000007C0001F83
:10398000F0001830002008002008002008003C0843
:10399000001C10000060000000000000000000009B
:1039A00007C0001FF0003818002008002008002081
:1039B0000804101007FFF80FFFF0000010000000CF
:1039C0000000000000000007C0001FF000123000DF
:1039D0002218002208002208003208001E10000EE3
:1039E0002000000000000000200000200800200847
:1039F00001FFF803FFF80620080420080420080748
:103A0000200003000000000000000000000E000E77
:103A10006E001FF30031B10020B10020B1003191E0
:103A2000001F13002E1E00200E00300000000004B6
:103A3000000807FFF80FFFF8001008002000002022
:103A400000002008003FF8001FF8000008000000F8
:103A500000000000000000200800200800200806E8
:103A60003FF8063FF80000080000080000080000CA
:103A70000000000000000000000000000300000340
:103A8000002001002001002003063FFE063FFC004D
:103A9000000000000000000000000004000807FF14
:103AA000F80FFFF8000188000300002FC00038F86D
:103AB000002038002008000008000000000000007E
:103AC000000004000804000804000807FFF80FFFC6
:103AD000F8000008000008000008000000000000D6
:103AE000002008003FF8003FF80010080020000008
:103AF0003FF8003FF8001008002000003FF8003FAA
:103B0000F8000008000000002008003FF8003FF81F
:103B1000001008001000002000002008003FF800FE
:103B20001FF80000080000000000000007C0000FA0
:103B3000F00018300030080020080020080030088D
:103B4000001830000FF00007C00000000000000067
:103B50002001003FFF003FFF00101100200900205E
:103B600008002008003038001FF0000FC0000000DF
:103B70000000000007C0001FF000381800200800F7
:103B80002008002009001011001FFF003FFF000067
:103B900001000000002008002008002008003FF875
:103BA000003FF8000808001008002008002000006E
:103BB0003000003000000000000000000000000C99
:103BC00078001E180033080023080021080021880F
:103BD0000021980030F00038600000000000000074
:103BE000200000200000200000FFF003FFF800206C
:103BF000080020080020080000300000000000003D
:103C0000000000002000003FF0007FF800001800D6
:103C10000008000008002010003FF8007FF00000BE
:103C200010000000000000002000003000003C00F8
:103C3000003F800023F00000780000700023800027
:103C40003C00003000002000002000003C00003F4D
:103C5000E00023F80000E0002700003E00003FE005
:103C60000021F80001E0003E0000200000000000FC
:103C70002008002008003838003E68002780000334
:103C8000C8002CF800383800201800200800000078
:103C9000000000002000003003003C01003F8300D2
:103CA00023EC000070002380003C00002000002076
:103CB000000000000000000000000038080020386C
:103CC0000020F80023E8002F88003E080038080094
:103CD000201800007000000000000000000000003C
:103CE000000000000000000008000014001FF7FCA6
:103CF000300006200002000000000000000000006C
:103D00000000000000000000000000000000FFFFB5
:103D1000FF000000000000000000000000000000A4
:103D20000000000000002000023000061FF7FC0029
:103D30001400000800000000000000000000000067
:103D400000000000000000180000600000400000BB
:103D500040000020000010000008000004000004E3
:103D600000000C0000100000000000000000000037
:103D70000000000000000000000000000000000043
:103D80000000000000000000000000000000000033
:103D90000000000000000000000000000000000023
:103DA0000000000000000000000000000000000013
:103DB0000000000000000000000000000000000003
:103DC00000000000000000000000000000000000F3
:103DD00000000000000000000000000000000000E3
:103DE00000000000000000000000000000000000D3
:103DF00000000000000000000000000000000000C3
:103E000007F000C007FFE1E007F001E0000000C09C
:103E100000000000000000000000000000000000A2
:103E20000000000000000000000000000000000092
:103E30000000000000000000000000000000000082
:103E40000000000000000000000000000000000072
:103E50000000000000000000000000000000000062
:103E60000000000000000000000000000000000052
:103E70000020000001C00000078000001F000000BB
:103E80001E0000001C20000001C000000780000090
:103E90001F0000001E0000001C00000000000000C9
:103EA0000000000000000000000000000000000012
:103EB0000000000000000000000000000000000002
:103EC00000000000000000000000000000000000F2
:103ED00000000000000000000000000000000000E2
:103EE00000000000000000000000000000180C00AE
:103EF00000180C0000180FE0001FFC0003F80C0075
:103F000000180C0000180C0000180C0000180C0021
:103F100000180FE0001FFC0003F80C0000180C0054
:103F200000180C000000000000000000000000006D
:103F30000000000000000000000000000000000081
:103F40000000000000000000000000000000000071
:103F50000000000000000000000000000000000061
:103F60000000000000000000000000000000000051
:103F700000000780007807C000FC0640010E00200A
:103F800003070020020380200FFFFFFC0201C02076
:103F90000200E0600130704001F03F8000F01F003F
:103FA0000000000000000000000000000000000011
:103FB0000000000000000000000000000000000001
:103FC00000000000000000000000000000000000F1
:103FD00000000000000000000000000000000000E1
:103FE000000000000000000000FE000001FF0000D3
:103FF0000301800002008060030181C001FF07000F
:1040000000FE18000000E0000003BF00000CFFC02D
:104010000071806001C10020030180600000FFC0CA
:1040200000003F0000000000000000000000000051
:104030000000000000000000000000000000000080
:104040000000000000000000000000000000000070
:104050000000000000000000000000000000000060
:10406000000000000000000000001F0000007FC0F2
:1040700000FCC0C001FF80600303E0200202782042
:1040800002061E2003FC074001F00380000103C06C
:1040900000011C600001E020000100200001004040
:1040A000000001800000000000000000000000008F
:1040B0000000000000000000000000000000000000
:1040C00000000000000000000000000000000000F0
:1040D00000000000000000000000000000000000E0
:1040E00000000000000000000000000000200000B0
:1040F0001C6000001C4000001F8000000F0000003A
:1041000000000000000000000000000000000000AF
:10411000000000000000000000000000000000009F
:10412000000000000000000000000000000000008F
:10413000000000000000000000000000000000007F
:10414000000000000000000000000000000000006F
:10415000000000000000000000000000000000005F
:10416000000000000000000000000000000000004F
:10417000000000000000000000000000000000003F
:10418000000000000007F800003FFF00007807C0B3
:1041900001C000E003000030040000080800000433
:1041A00010000002000000000000000000000000FD
:1041B00000000000000000000000000000000000FF
:1041C00000000000000000000000000000000000EF
:1041D00000000000000000000000000000000000DF
:1041E00000000000000000000000000010000002BD
:1041F00008000004040000080300003001C000E0D3
:10420000007807C0003FFF000007F8000000000032
:10421000000000000000000000000000000000009E
:10422000000000000000000000000000000000008E
:10423000000000000000000000000000000000007E
:10424000000000000000000000000000000000006E
:10425000000000000000000000000000000000005E
:10426000000000000000000000000000000000004E
:10427000000C1800000E3800000E38000006300058
:10428000000360000061438000FFFF800061430085
:104290000003600000063000000E3800000E3800F9
:1042A000000C1800000000000000000000000000EA
:1042B00000000000000000000000000000000000FE
:1042C00000000000000000000000000000000000EE
:1042D00000000000000000000000000000000000DE
:1042E00000000000000000000000000000000000CE
:1042F00000008000000080000000800000008000BE
:104300000000800000008000007FFF0000008000AF
:10431000000080000000800000008000000080009D
:10432000000080000000000000000000000000000D
:10433000000000000000000000000000000000007D
:10434000000000000000000000000000000000006D
:10435000000000000000000000000000000000005D
:10436000000000000000000000000000000000014C
:10437000000000E3000000E2000000FC0000007804
:10438000000000000000000000000000000000002D
:10439000000000000000000000000000000000001D
:1043A000000000000000000000000000000000000D
:1043B00000000000000000000000000000000000FD
:1043C00000000000000000000000000000000000ED
:1043D00000000000000000000000000000000000DD
:1043E000000000000000000000000000000080004D
:1043F00000008000000080000000800000008000BD
:1044000000008000000080000000800000008000AC
:10441000000080000000800000008000000080009C
:10442000000080000000000000000000000000000C
:10443000000000000000000000000000000000007C
:10444000000000000000000000000000000000006C
:10445000000000000000000000000000000000005C
:10446000000000000000000000000000000000004C
:10447000000000C0000001E0000001E0000000C0FA
:10448000000000000000000000000000000000002C
:10449000000000000000000000000000000000001C
:1044A000000000000000000000000000000000000C
:1044B00000000000000000000000000000000000FC
:1044C00000000000000000000000000000000000EC
:1044D00000000000000000000000000000000000DC
:1044E0000000000000000000000000000000000CC0
:1044F00000000038000000E00000038000000E0013
:10450000000038000000E00000038000000E000002
:104510000038000000E00000038000000E000000F2
:104520001800000000000000000000000000000073
:10453000000000000000000000000000000000007B
:10454000000000000000000000000000000000006B
:10455000000000000000000000000000000000005B
:10456000000000000000000000000000000000004B
:10457000000FF800007FFF0000F00780018000C0FE
:104580000300006002000020020000200200002062
:1045900003000060018000C000E00380007FFF0096
:1045A000000FF80000000000000000000000000004
:1045B00000000000000000000000000000000000FB
:1045C00000000000000000000000000000000000EB
:1045D00000000000000000000000000000000000DB
:1045E00000000000000000000000000000000000CB
:1045F00000000000008000200080002000800020DB
:104600000080006001FFFFE003FFFFE000000060AA
:10461000000000200000002000000020000000003A
:10462000000000000000000000000000000000008A
:10463000000000000000000000000000000000007A
:10464000000000000000000000000000000000006A
:10465000000000000000000000000000000000005A
:10466000000000000000000000000000000000004A
:10467000007800E000980160010002600200046020
:10468000020008600200106002002060020040602A
:10469000030080600183006001FE00E0007C078071
:1046A000000000000000000000000000000000000A
:1046B00000000000000000000000000000000000FA
:1046C00000000000000000000000000000000000EA
:1046D00000000000000000000000000000000000DA
:1046E00000000000000000000000000000000000CA
:1046F00000F0078001F007C0010000400200002028
:10470000020100200201002002010020030380209A
:104710000186804001FCC0C000787F8000001E0040
:104720000000000000000000000000000000000089
:104730000000000000000000000000000000000079
:104740000000000000000000000000000000000069
:104750000000000000000000000000000000000059
:104760000000000000000000000000000000080041
:104770000000380000004800000188000006080022
:10478000000C0810003008100040081001FFFFF076
:1047900003FFFFF003FFFFF0000008100000081007
:1047A00000000810000000000000000000000000F1
:1047B00000000000000000000000000000000000F9
:1047C00000000000000000000000000000000000E9
:1047D00000000000000000000000000000000000D9
:1047E00000000000000000000000000000000000C9
:1047F00000000780001F864003E100200302002024
:10480000030400200304002003040020030400200C
:1048100003060040030301C00301FF8003007E0084
:104820000000000000000000000000000000000088
:104830000000000000000000000000000000000078
:104840000000000000000000000000000000000068
:104850000000000000000000000000000000000058
:104860000000000000000000000000000000000048
:104870000007FC00003FFF000070C380008180C083
:104880000101006003020020020200200202002059
:10489000020200200203004001C180C000C0FF806E
:1048A00000007E000000000000000000000000008A
:1048B00000000000000000000000000000000000F8
:1048C00000000000000000000000000000000000E8
:1048D00000000000000000000000000000000000D8
:1048E00000000000000000000000000000000000C8
:1048F00000F0000003C0000003800000030000007F
:10490000030007E003003FE00301C00003060000CE
:104910000318000003600000038000000300000093
:104920000000000000000000000000000000000087
:104930000000000000000000000000000000000077
:104940000000000000000000000000000000000067
:104950000000000000000000000000000000000057
:1049600000000000000000000000000000001F0028
:1049700000783F8000FC60C0018EC04003078020AB
:104980000203002002018020020180200201C020D9
:104990000301E040018670C000FC3F8000781F00EA
:1049A0000000000000000000000000000000000007
:1049B00000000000000000000000000000000000F7
:1049C00000000000000000000000000000000000E7
:1049D00000000000000000000000000000000000D7
:1049E000000000000000000000000000003F000088
:1049F00000FF81C001C0C1C0010060200200202072
:104A0000020020200200202002002060020040C09E
:104A10000100C18000C18F00007FFE00001FF00078
:104A20000000000000000000000000000000000086
:104A30000000000000000000000000000000000076
:104A40000000000000000000000000000000000066
:104A50000000000000000000000000000000000056
:104A60000000000000000000000000000000000046
:104A70000000000000000000000000000000000036
:104A8000000300C0000781E0000781E0000300C0D0
:104A90000000000000000000000000000000000016
:104AA0000000000000000000000000000000000006
:104AB00000000000000000000000000000000000F6
:104AC00000000000000000000000000000000000E6
:104AD00000000000000000000000000000000000D6
:104AE00000000000000000000000000000000000C6
:104AF00000000000000000000000000000000000B6
:104B000000060066000600780000000000000000BB
:104B10000000000000000000000000000000000095
:104B20000000000000000000000000000000000085
:104B30000000000000000000000000000000000075
:104B40000000000000000000000000000000000065
:104B50000000000000000000000000000000000055
:104B60000000000000000000000000000000000045
:104B7000000080000001C00000036000000630005B
:104B8000000C180000180C00003006000060030044
:104B900000C001800100004002000020040000105D
:104BA0000000000000000000000000000000000005
:104BB00000000000000000000000000000000000F5
:104BC00000000000000000000000000000000000E5
:104BD00000000000000000000000000000000000D5
:104BE00000000000000000000000000000041000B1
:104BF0000004100000041000000410000004100065
:104C00000004100000041000000410000004100054
:104C10000004100000041000000410000004100044
:104C20000004100000000000000000000000000070
:104C30000000000000000000000000000000000074
:104C40000000000000000000000000000000000064
:104C50000000000000000000000000000000000054
:104C60000000000000000000000000000000000044
:104C700004000010020000200100004000C001807C
:104C8000006003000030060000180C00000C180043
:104C900000063000000360000001C000000080003A
:104CA0000000000000000000000000000000000004
:104CB00000000000000000000000000000000000F4
:104CC00000000000000000000000000000000000E4
:104CD00000000000000000000000000000000000D4
:104CE00000000000000000000000000000000000C4
:104CF0000078000001F80000023800000200000007
:104D0000040000C0040079E0040081E0040100C058
:104D100004030000020200000306000001FC000082
:104D200000F800000000000000000000000000008B
:104D30000000000000000000000000000000000073
:104D40000000000000000000000000000000000063
:104D50000000000000000000000000000000000053
:104D6000000000000000000000000000000FF8003C
:104D7000003FFE000070078000C000C00101F84045
:104D80000307FC20021E04200230082002203020ED
:104D9000023FFC20013F044001800CC000E0318054
:104DA000001FC20000000000000000000000000022
:104DB00000000000000000000000000000000000F3
:104DC00000000000000000000000000000000000E3
:104DD00000000000000000000000000000000000D3
:104DE0000000000000000000000000200000006043
:104DF000000003E000003E200003E020003E200011
:104E000003E020000380200007FC2000003FE000BA
:104E10000003FE2000003FE0000001E00000002051
:104E20000000002000000000000000000000000062
:104E30000000000000000000000000000000000072
:104E40000000000000000000000000000000000062
:104E50000000000000000000000000000000000052
:104E60000000000000000000000000000200002020
:104E70000200002003FFFFE003FFFFE0020100202B
:104E80000201002002010020020100200201002096
:104E9000030300200186806001FCC0C000F87F8011
:104EA00000001F00000000000000000000000000E3
:104EB00000000000000000000000000000000000F2
:104EC00000000000000000000000000000000000E2
:104ED00000000000000000000000000000000000D2
:104EE0000000000000000000000000000007F800C3
:104EF000003FFF000070078000C000C001000040BC
:104F00000300002002000020020000200200002018
:104F10000200002001000040018000C003C00180A9
:104F2000003006000000000000000000000000004B
:104F30000000000000000000000000000000000071
:104F40000000000000000000000000000000000061
:104F50000000000000000000000000000000000051
:104F6000000000000000000000000000020000201F
:104F70000200002003FFFFE003FFFFE0020000202B
:104F80000200002002000020020000200300006058
:104F900001000040018000C000F00780007FFE009B
:104FA000000FF800000000000000000000000000FA
:104FB00000000000000000000000000000000000F1
:104FC00000000000000000000000000000000000E1
:104FD00000000000000000000000000000000000D1
:104FE000000000000000000000000000020000209F
:104FF0000200002003FFFFE003FFFFE002010020AA
:105000000201002002010020020100200201002014
:1050100002038020020FE0200300006003C000E0D4
:10502000006003000000000000000000000000001D
:105030000000000000000000000000000000000070
:105040000000000000000000000000000000000060
:105050000000000000000000000000000000000050
:10506000000000000000000000000000020000201E
:105070000200002003FFFFE003FFFFE00201002029
:1050800002010020020100000201000002010000F4
:105090000201000002038000030FE0000300000093
:1050A00003C00000006000000000000000000000DD
:1050B00000000000000000000000000000000000F0
:1050C00000000000000000000000000000000000E0
:1050D00000000000000000000000000000000000D0
:1050E0000000000000000000000000000007F800C1
:1050F000003FFE000070078001C001C001000040B9
:105100000300002002000020020000200200002016
:10511000010020200100204003C03F8000303F807C
:10512000000020000000200000000000000000003F
:10513000000000000000000000000000000000006F
:10514000000000000000000000000000000000005F
:10515000000000000000000000000000000000004F
:1051600000000000000000000200002002000020FB
:1051700003FFFFE003FFFFE0020080200200802029
:1051800000008000000080000000800002008020FD
:105190000200802003FFFFE003FFFFE00200002089
:1051A00002000020000000000000000000000000DD
:1051B00000000000000000000000000000000000EF
:1051C00000000000000000000000000000000000DF
:1051D00000000000000000000000000000000000CF
:1051E00000000000000000000000000000000000BF
:1051F0000000000002000020020000200200002049
:105200000200002003FFFFE003FFFFE00200002098
:105210000200002002000020020000200000000028
:10522000000000000000000000000000000000007E
:10523000000000000000000000000000000000006E
:10524000000000000000000000000000000000005E
:10525000000000000000000000000000000000004E
:105260000000000000000000000000000000000E30
:105270000000000F0000000F00000001020000010C
:1052800002000001020000030200000603FFFFFC11
:1052900003FFFFF80200000002000000020000000F
:1052A00002000000000000000000000000000000FC
:1052B00000000000000000000000000000000000EE
:1052C00000000000000000000000000000000000DE
:1052D00000000000000000000000000000000000CE
:1052E000000000000000000000000000020000209C
:1052F0000200002003FFFFE003FFFFE00200C020E8
:105300000201002000078000000FE0000030F800DC
:1053100002603E2003800F20030003E0020000E053
:10532000020000200000002000000000000000003B
:10533000000000000000000000000000000000006D
:10534000000000000000000000000000000000005D
:10535000000000000000000000000000000000004D
:10536000000000000000000000000000020000201B
:105370000200002003FFFFE003FFFFE00200002027
:10538000020000200000002000000020000000209B
:10539000000000200000002000000060000000E08D
:1053A00000000300000000000000000000000000FA
:1053B00000000000000000000000000000000000ED
:1053C00000000000000000000000000000000000DD
:1053D00000000000000000000000000000000000CD
:1053E0000000000000000000020000200200002079
:1053F00003FFFFE003E0002003FF0020001FF00098
:105400000001FF8000000FE000001E000003E0002C
:10541000003E002003E0002003FFFFE003FFFFE069
:105420000200002002000020000000000000000038
:10543000000000000000000000000000000000006C
:10544000000000000000000000000000000000005C
:10545000000000000000000000000000000000004C
:1054600000000000000000000200002002000020F8
:1054700003FFFFE00380002003F0002000FC000099
:10548000001F00000007C0000001F00000007C00C9
:1054900002001F80020007E003FFFFE0020000009F
:1054A00002000000000000000000000000000000FA
:1054B00000000000000000000000000000000000EC
:1054C00000000000000000000000000000000000DC
:1054D00000000000000000000000000000000000CC
:1054E000000000000000000000000000000FF800B5
:1054F000003FFE0000F00780018000C00100004076
:105500000200002002000020020000200200002013
:1055100001000040018000C000F00380003FFE0059
:10552000000FF80000000000000000000000000074
:10553000000000000000000000000000000000006B
:10554000000000000000000000000000000000005B
:10555000000000000000000000000000000000004B
:105560000000000000000000000000000200002019
:105570000200002003FFFFE003FFFFE002008020A5
:1055800002008020020080000200800002008000F3
:1055900002008000030180000183000000FE000083
:1055A000007C00000000000000000000000000007F
:1055B00000000000000000000000000000000000EB
:1055C00000000000000000000000000000000000DB
:1055D00000000000000000000000000000000000CB
:1055E000000000000000000000000000000FF800B4
:1055F000007FFF0000F00380018001C00100064031
:10560000020004200200042002000620020003E041
:10561000010000F80180005C00E0038C003FFF0CFB
:10562000000FFC1800000000000000000000000057
:10563000000000000000000000000000000000006A
:10564000000000000000000000000000000000005A
:10565000000000000000000000000000000000004A
:105660000000000000000000000000000200002018
:105670000200002003FFFFE003FFFFE00201002023
:1056800002010020020180000201E0000201FC0092
:1056900003033F80018607E001FC00E000F80020E2
:1056A00000000020000000000000000000000000DA
:1056B00000000000000000000000000000000000EA
:1056C00000000000000000000000000000000000DA
:1056D00000000000000000000000000000000000CA
:1056E00000000000000000000000000000000000BA
:1056F0000078060000FE01E0018600C003030040C0
:105700000203002002018020020180200201C0204B
:105710000200C0200100E060018070C003E03F8013
:1057200000001F000000000000000000000000005A
:105730000000000000000000000000000000000069
:105740000000000000000000000000000000000059
:105750000000000000000000000000000000000049
:1057600000000000000000000000000000600000D9
:10577000038000000300000002000000020000207F
:105780000200002003FFFFE003FFFFE00200002013
:105790000200002002000000020000000380000060
:1057A00000E0000000000000000000000000000019
:1057B00000000000000000000000000000000000E9
:1057C00000000000000000000000000000000000D9
:1057D00000000000000000000000000000000000C9
:1057E00000000000000000000200000002000000B5
:1057F00003FFFF0003FFFFC0020000400200006043
:105800000000002000000020000000200000002018
:10581000020000400200008003FFFF0002000000C1
:105820000200000000000000000000000000000076
:105830000000000000000000000000000000000068
:105840000000000000000000000000000000000058
:105850000000000000000000000000000000000048
:105860000000000000000000000000000200000036
:105870000200000003C0000003FC0000023FC00063
:105880000003F80000007F80000007E000000780B0
:10589000000078000203C000023C000003C00000CA
:1058A00002000000020000000000000000000000F4
:1058B00000000000000000000000000000000000E8
:1058C00000000000000000000000000000000000D8
:1058D00000000000000000000000000000000000C8
:1058E00000000000000000000200000003C00000F3
:1058F00003FF8000023FFE0002007FE000000F0077
:105900000200F00003EF000003FF8000020FFE0022
:1059100000003FE000001F000207E00003F8000065
:105920000300000002000000000000000000000072
:105930000000000000000000000000000000000067
:105940000000000000000000000000000000000057
:105950000000000000000000000000000000000047
:105960000000000000000000000000000200002015
:1059700002000020038000E003F0032002FC0C2062
:10598000021F30000007C0000007F00002187C0072
:1059900002601F20038003E0020000E002000020FC
:1059A00000000020000000000000000000000000D7
:1059B00000000000000000000000000000000000E7
:1059C00000000000000000000000000000000000D7
:1059D00000000000000000000000000000000000C7
:1059E00000000000000000000000000002000000B5
:1059F0000300000003C0000003F80000023E002086
:105A0000020FC0200001FFE000007FE000038020C3
:105A1000021C002002700000038000000200000051
:105A20000200000000000000000000000000000074
:105A30000000000000000000000000000000000066
:105A40000000000000000000000000000000000056
:105A50000000000000000000000000000000000046
:105A60000000000000000000000000000000002016
:105A7000006000E0038003E003000FA002003E206E
:105A80000200F8200203E020020F8020023E0020E6
:105A90000278002003E00060038000E002000300C1
:105AA00000000000000000000000000000000000F6
:105AB00000000000000000000000000000000000E6
:105AC00000000000000000000000000000000000D6
:105AD00000000000000000000000000000000000C6
